:100000000C94DD0B0C940A0C0C940A0C0C940A0C46
:100010000C940A0C0C940A0C0C940A0C0C940A0C08
:100020000C940A0C0C940A0C0C940A0C0C940A0CF8
:100030000C940A0C0C940A0C0C940A0C0C940A0CE8
:100040000C940A0C0C9435660C940A0C0C940A0C53
:100050000C940A0C0C940A0C0C94CF710C9484B37D
:100060000C940A0C0C945E1E0C940A0C0C940A0C52
:100070000C940A0C0C940A0C0C940A0C0C940A0CA8
:100080000C940A0C0C940A0C0C940A0C0C940A0C98
:100090000C940A0C0C940A0C0C940A0C0C940A0C88
:1000A0000C940A0C0C940A0C0C940A0C0C940A0C78
:1000B0000C940A0C0C940A0C0C940A0C0C940A0C68
:1000C0000C940A0C0C940A0C0C940A0C0C940A0C58
:1000D0000C940A0C0C940A0C0C940A0C0C940A0C48
:1000E0000C940A0C084AD73B3BCE016E84BCBFFD82
:1000F000C12F3D6C74319ABD56833DDA3D00C77FF8
:1001000011BED9E4BB4C3E916BAAAABE0000008090
:100110003F05A84CCDB2D44EB93836A9020C50B91F
:10012000918688083CA6AAAA2ABE000000803F65E6
:1001300063686F3A0043616E6E6F7420656E74651C
:1001400072207375626469723A20004572726F7230
:100150003A006572726F722077726974696E6720F7
:10016000746F2066696C65004E6F74205344207074
:1001700072696E74696E67002F0053442070726953
:100180006E74696E67206279746520002E00446584
:100190006C6574696F6E206661696C65642C2046BD
:1001A000696C653A200046696C652064656C65740D
:1001B00065643A002E006F70656E206661696C653B
:1001C000642C2046696C653A200057726974696E28
:1001D0006720746F2066696C653A20002E006F708E
:1001E000656E206661696C65642C2046696C653AB1
:1001F00020002E006F70656E206661696C65642C4E
:100200002046696C653A200046696C652073656C10
:100210006563746564002053697A653A2000466915
:100220006C65206F70656E65643A20002E006F70FB
:10023000656E206661696C65642C2046696C653A60
:10024000200053442063617264206F6B006F7065FF
:100250006E526F6F74206661696C656400766F6CB6
:10026000756D652E696E6974206661696C656400E0
:10027000534420696E6974206661696C0065636827
:100280006F3A004572726F723A0053544F505045A6
:10029000442E20005072696E7465722073746F7002
:1002A0007065642064756520746F206572726F726A
:1002B000732E2046697820746865206572726F72AB
:1002C00020616E6420757365204D39393920746F53
:1002D00020726573746172742E202854656D706588
:1002E0007261747572652069732072657365742E0E
:1002F000205365742069742061667465722072658C
:100300007374617274696E6729004B494C4C4544A3
:100310002E20005072696E7465722068616C74657D
:10032000642E206B696C6C28292063616C6C656499
:1003300021006F6B00526573656E643A20002200E5
:10034000556E6B6E6F776E20636F6D6D616E643A84
:100350002022007A5F6D61783A20007A5F6D696EC5
:100360003A2000795F6D61783A2000795F6D696E9F
:100370003A2000785F6D61783A2000785F6D696E91
:100380003A20005A3A00593A0020436F756E7420A3
:10039000583A2000453A005A3A00593A00583A0073
:1003A0004649524D574152455F4E414D453A4D6188
:1003B000726C696E2056313B20537072696E7465A1
:1003C000722F6772626C206D617368757020666F42
:1003D000722067656E36204649524D574152455F3F
:1003E00055524C3A687474703A2F2F7777772E7481
:1003F000696E79666163746F72792E636F2E6B72AA
:100400002050524F544F434F4C5F56455253494F23
:100410004E3A312E30204D414348494E455F5459A4
:1004200050453A57616C2D4D616B657220455854AB
:1004300052554445525F434F554E543A310A00508D
:1004400061727469616C2052656C6561736500420C
:10045000656420646F6E652E0020423A0020453AA4
:1004600000543A004265642048656174696E672EE5
:100470000048656174696E6720646F6E652E0020A8
:10048000573A0020453A00543A0048656174696E55
:10049000672E2E2E002042403A0020403A00202FA6
:1004A0000020423A00202F006F6B20543A00456E26
:1004B000642066696C65206C6973740042656769C5
:1004C0006E2066696C65206C697374004E6F206DD8
:1004D0006F76652E005761697420666F72207573A0
:1004E00065722E2E2E00536C6565702E2E2E000028
:1004F00000DC420000DC42000002430000A040009B
:1005000000A0400000803FFFFFFF0000000000004F
:1005100000000000000000000000000000000000DB
:1005200000000000DC420000DC4200000243446F97
:100530006E65207072696E74696E672066696C659D
:100540000053544F505045442E20005072696E7431
:1005500065722073746F70706564206475652074B3
:100560006F206572726F72732E20466978207468EE
:1005700065206572726F7220616E642075736520EC
:100580004D39393920746F20726573746172742E1D
:10059000202854656D706572617475726520697389
:1005A0002072657365742E20536574206974206110
:1005B000667465722072657374617274696E6729FE
:1005C000006F6B004E6F204C696E65204E756D623A
:1005D0006572207769746820636865636B73756DF5
:1005E0002C204C617374204C696E653A20004E6F6C
:1005F00020436865636B73756D2077697468206C40
:10060000696E65206E756D6265722C204C61737425
:10061000204C696E653A2000636865636B73756D85
:10062000206D69736D617463682C204C6173742054
:100630004C696E653A20004C696E65204E756D629E
:100640006572206973206E6F74204C617374204C46
:10065000696E65204E756D6265722B312C204C6180
:100660007374204C696E653A2000446F6E65207388
:100670006176696E672066696C652E006F6B00207D
:1006800020506C616E6E6572427566666572427965
:100690007465733A20002046726565204D656D6F64
:1006A00072793A2000286E6F6E652C206465666151
:1006B000756C7420636F6E6669672900207C204129
:1006C0007574686F723A20004A756E2020352032AA
:1006D0003031342031363A30393A323600204C61EC
:1006E000737420557064617465643A2000312E3053
:1006F0002E30004D61726C696E200020536F66745D
:100700007761726520526573657400205761746368
:1007100068646F67205265736574002042726F775A
:100720006E206F757420526573657400204578746F
:1007300065726E616C20526573657400506F7765E9
:10074000725570007374617274002200656E717569
:1007500065696E672022006563686F3A0020746FD8
:100760006F206C6F6E6720657874727573696F6E39
:100770002070726576656E7465640020636F6C64CA
:1007800020657874727573696F6E20707265766516
:100790006E746564007C3C3E5E2B3D3F2F5B5D3B91
:1007A0002C2A225C0052656C65617365642E0024FE
:1007B000F404D9201BC40C5C0E9804C4095F0265C4
:1007C000077101F405F900FB04B30048048700C178
:1007D0000369005803550003034500BE023A008434
:1007E00002310053022A002902250004022000E4FD
:1007F000011C00C8011900AF011700980114008402
:10080000011300710110006101100051010E00433D
:10081000010D0036010B002B010B0020010B001510
:100820000109000C01090003010800FB000800F3A6
:10083000000800EB000700E4000600DE000600D818
:10084000000600D2000600CC000500C7000500C26B
:10085000000500BD000400B9000400B5000400B1AB
:10086000000400AD000400A9000400A5000300A2DC
:100870000003009F0004009B000300980003009504
:1008800000020093000300900003008D0002008B23
:10089000000300880002008600020084000300813B
:1008A0000002007F0002007D0002007B0002007950
:1008B000000200770001007600020074000200725E
:1008C000000100710002006F0002006D0001006C69
:1008D0000002006A00010069000200670001006672
:1008E0000001006500010064000200620001006177
:1008F000000100600001005F0002005D0001005C7B
:100900000001005B0001005A00010059000100587D
:10091000000100570001005600010055000100547D
:10092000000100530000005300010052000100517B
:10093000000100500001004F0001004E0000004E79
:100940000001004D0001004C0001004B0000004B75
:100950000001004A00010049000100480000004871
:10096000000100470001004600000046000100456C
:100970000000004500010044000100430000004366
:10098000000100420000004200010041000000415F
:10099000000100400001003F0000003F0001003E58
:1009A0000000003E0001003D0000003D0001003C51
:1009B0000000003C0000003C0001003B0000003B48
:1009C0000001003A0000003A00010039000000393F
:1009D0000001003800000038000000380001003736
:1009E000000000370001003600000036000000362D
:1009F0000001003500000035000000350001003422
:100A00000000003400000034000100330000003317
:100A1000000000330001003200000032000000320C
:100A20000001003100000031000000310001003001
:100A300000000030000000300001002F0000002FF7
:100A40000000002F0000002F0001002E0000002EEB
:100A50000000002E0001002D0000002D0000002DE0
:100A60000000002D0001002C0000002C0000002CD4
:100A70000000002C0001002B0000002B0000002BC8
:100A80000000002B0001002A0000002A0000002ABC
:100A90000000002A000100290000002900000029B0
:100AA00000000029000000290001002800000028A3
:100AB0000000002800000028000000280001002796
:100AC000000000270000002700000027000000278A
:100AD000000100260000002600000026000000267D
:100AE0000000002600010025000000250000002570
:100AF0000000002500000025000000250001002462
:100B00000000002400000024000000240000002455
:100B10000001002300000023000000230000002348
:100B20000000002300000023000000230001002239
:100B3000000000220000002200000022000000222D
:100B4000000000220001002100000021000000211F
:100B50000000002100000021000000210000002111
:100B60000001002000000020000000200000002004
:100B700000000020000000200000002000000020F5
:100B80000001001F0000001F0000001F0000001FE8
:100B90000000001F0000001F0000001F0001001ED9
:100BA0000000001E0000001E0000001E00000024C7
:100BB000F4D43050C38E20C2A24017828B70111221
:100BC0007A910D816CD90AA861E108C7586607615E
:100BD0005143061E4B5D05C145A7041A4111040986
:100BE0003D9803713931034036DB0265339102D4FD
:100BF000305402802E1D02632CEE01752AC501B00F
:100C000028A001102781018F2564012B244B01E0CE
:100C1000223401AC211F018D200D01801FFC0084B6
:100C20001EED00971DDF00B81CD200E61BC6002099
:100C30001BBC00641AB200B219A8000A19A0006A0D
:100C4000189900D117910040178B00B51684003118
:100C5000167E00B31579003A157300C7146F00585B
:100C6000146A00EE1366008813630025135E00C744
:100C7000125B006C12570015125400C11151007024
:100C8000114F0021114B00D61049008D104700462E
:100C900010440002104200C00F4000800F3E00428E
:100CA0000F3C00060F3B00CB0E3800930E37005C64
:100CB0000E3500270E3400F30D3200C10D310090C7
:100CC0000D3000600D2E00320D2D00050D2C00D9C9
:100CD0000C2B00AE0C2900850C29005C0C2700357C
:100CE0000C27000E0C2600E80B2400C40B2400A0E7
:100CF0000B23007D0B23005A0B2100390B21001818
:100D00000B2000F80A1F00D90A1E00BB0A1E009D16
:100D10000A1D00800A1D00630A1C00470A1B002CE4
:100D20000A1B00110A1A00F7091A00DD091900C48C
:100D3000091900AB091900920917007B0918006313
:100D40000917004C09160036091600200916000A7A
:100D5000091500F5081500E0081400CC081400B8C7
:100D6000081400A4081400900813007D0812006BFA
:100D70000813005808120046081200340811002316
:100D80000811001208110001081100F0071000E01E
:100D9000071000D0071000C0071000B0070F00A117
:100DA00007100091070E0083070F0074070F0065FE
:100DB000070E0057070E0049070E003B070D002ED7
:100DC000070E0020070D0013070D0006070D00F9A0
:100DD000060C00ED060D00E0060C00D4060C00C861
:100DE000060C00BC060C00B0060C00A4060B009913
:100DF000060C008D060B0082060B0077060B006CBC
:100E0000060B0061060A0057060B004C060A00425A
:100E1000060A0038060A002E060A0024060A001AEE
:100E2000060A001006090007060A00FD050900F47D
:100E3000050900EB050900E2050900D9050900D004
:100E4000050900C7050900BE050900B5050800AD84
:100E5000050800A50509009C050800940508008CFC
:100E6000050800840508007C050800740508006C6E
:100E7000050700650508005D050700560508004EDA
:100E80000507004705070040050800380507003141
:100E90000507002A050700230507001C05060016A4
:100EA0000507000F0507000805060002050700FBFF
:100EB000040600F5040700EE040600E8040600E25C
:100EC000040700DB040600D5040600CF040600C9B1
:100ED000040600C3040600BD040600B7040600B102
:100EE000040500AC040600A6040600A00405009B4F
:100EF00004060095040500900406008A0405008598
:100F0000040500800406007A0405007504050070DD
:100F10000405006B04050066040500610405005C1F
:100F200004050057040500520405004D040500485F
:100F3000040500430405003E0404003A040500359E
:100F4000040500300404002C0405002704040023D9
:100F50000405001E0404001A040400160405001110
:100F60000404000D04040009040500040404000046
:100F7000040400FC030400F8030400F4030400F07C
:100F8000030400EC030400E8030400E4030400E0AD
:100F9000030400DC030400D8030400D4030400D0DD
:100FA000030400CC030400C8030300C50303006569
:100FB00063686F3A00205A3A0020593A0020583AA4
:100FC00000656E6473746F7073206869743A2000F2
:100FD0004572726F723A0054656D70657261747516
:100FE000726520686561746564206265642073774A
:100FF000697463686564206F66662E204D4158549D
:10100000454D5020747269676765726564202121BF
:10101000003A20457874727564657220737769743C
:1010200063686564206F66662E204D494E54454DB9
:1010300050207472696767657265642021003A20E8
:101040004578747275646572207377697463686536
:1010500064206F66662E204D415854454D502074D3
:10106000726967676572656420210070012C0190C8
:10107000012701B0012201C0011D01F0011801107A
:1010800002130130020E016002090190020401C046
:1010900002FF000003FA004003F5008003F000D0D7
:1010A00003EB002004E6007004E100E004DC0040F3
:1010B00005D700C005D2004006CD00D006C800808C
:1010C00007C3003008BE00F008B900C009B400B082
:1010D0000AAF00B00BAA00D00CA500000EA0005073
:1010E0000F9B00C01096005012910000148C00C09D
:1010F000158700B0178200B0197D00D01B78000062
:101100001E730040206E0090226900F024640040AD
:10111000275F0090295A00E02B5500102E50002028
:10112000304B0010324600E033410090353C001057
:1011300037370070383200A0392D00B03A2800A0AF
:101140003B2300603C1E00103D1900903D14001030
:101150003E0F00703E0A00C03E0500003F00002028
:101160002D20496E76616C696420657874727564AF
:101170006572206E756D626572202100202D2049F8
:101180006E76616C6964206578747275646572202E
:101190006E756D6265722100504944204175746F0F
:1011A00074756E652066696E6973686564202120B8
:1011B000506C61636520746865204B702C204B690E
:1011C00020616E64204B6420636F6E7374616E7473
:1011D0007320696E2074686520636F6E6669677539
:1011E000726174696F6E2E680050494420417574B5
:1011F0006F74756E65206661696C65642120746921
:101200006D656F75740020403A006F6B20543A0092
:101210006F6B20423A00504944204175746F7475D9
:101220006E65206661696C6564212054656D70652A
:1012300072617475726520746F2068696768002038
:101240004B643A2000204B693A2000204B703A2032
:101250000020436C6173696320504944200020548E
:10126000753A2000204B753A2000206D61783A20B5
:1012700000206D696E3A200020643A2000206269E7
:1012800061733A20002053746F7265206D656D6F35
:1012900072790020024265643A0020024E6F7A7A29
:1012A0006C653A002046616E2073706565643A0093
:1012B0002054656D7065726174757265202003003D
:1012C0002053746F7265206D656D6F727900200216
:1012D0004265643A0020024E6F7A7A6C653A0020CB
:1012E00046616E2073706565643A002054656D70C8
:1012F00065726174757265202003004572726F72A9
:101300003A00536F6D657468696E67206973207762
:10131000726F6E6720696E20746865204D656E750A
:101320005374727563747572652E002052657375FF
:101330006D65205072696E74207E00205061757357
:1013400065205072696E74207E00204361726420B3
:101350004D656E75202020207E002053746F702014
:101360005072696E742020207E0020436F6E74726C
:101370006F6C207E002054756E65202020207E003A
:101380002050726570617265207E00205761746321
:10139000682020200300200004526566726573688F
:1013A00000204D61696E20030020526573746F72D6
:1013B00065204661696C7361666500204C6F6164ED
:1013C000206D656D6F7279002053746F7265206DAA
:1013D000656D6F727900204D6F74696F6E202020EB
:1013E0002020207E002054656D70657261747572D6
:1013F00065207E00204D61696E2020202020202065
:10140000200300204573746570732F6D6D3A0020C2
:101410005A73746570732F6D6D3A0020597374653B
:1014200070732F6D6D3A00205873746570732F6D53
:101430006D3A0030300030300020412D72657472FA
:101440006163743A00303000303000653A007A3A17
:1014500000793A00783A0020416D617820002056EA
:1014600054726176206D696E3A0020566D696E3A4D
:1014700000653A007A3A00793A00783A0020566DD1
:1014800061782000205678792D6A65726B3A2000C9
:10149000303000303000204163633A0020436F6EEB
:1014A00074726F6C2003002050726568656174204F
:1014B0004142532053657474696E67002050726511
:1014C0006865617420504C412053657474696E677F
:1014D00000205049442D433A2000205049442D44D7
:1014E0003A2000205049442D493A200020504944D8
:1014F0002D503A20002046616E2073706565643A75
:101500000020024265643A004F6666004F6E20007C
:101510004F6666004F6E2000204175746F74656DD4
:10152000703A00200220466163743A002002204D88
:1015300061783A002002204D696E3A0020024E6F19
:101540007A7A6C653A0020436F6E74726F6C200378
:101550000020466C6F773A002046616E20737065FC
:1015600065643A0020024265643A0020024E6F7AB8
:101570007A6C653A002053706565643A00204D61CD
:10158000696E200300205265747261637400204507
:1015900078747275646500205A3A0020593A002028
:1015A000583A002050726570617265200300204D2A
:1015B0006F766520417869732020202020207E00EE
:1015C00020436F6F6C646F776E00205072656865A2
:1015D0006174204142530020507265686561742037
:1015E000504C410020536574204F726967696E004A
:1015F000204175746F20486F6D65002044697361E8
:10160000626C65205374657070657273002041755B
:10161000746F737461727400204D61696E200300F1
:10162000255344002520005A3A006D0068200042EE
:101630003030302F303030012000023030302F3049
:10164000303001200057616C2D4D616B6572205266
:10165000656164792E0000002100240027002A0023
:101660002D003000330001010000040107010A01D0
:1016700000002200250028002B002E00310034003D
:1016800002010000050108010B01000020002300F9
:10169000260029002C002F00320000010000030169
:1016A00006010901050505050705080808080202E5
:1016B00002020A0A080804040404010101010101EC
:1016C00001010303030303030303040707070C0CCF
:1016D0000C0C0C0C0C0C0202020206060606060696
:1016E00006060B0B0B0B0B0B0B0B0102102020083B
:1016F000081020401020408002010201080402016D
:1017000001020408102040808040201008040201DB
:101710008004020180402010080402010804020134
:1017200001020408102040800102040810204080BB
:101730000000090A02080B0C0D0706030401000053
:101740000000000000000000000000000000000099
:1017500000000000000000000000000011100F0059
:101760000000000000000000000000000000000079
:10177000000000000000494E46494E4954594E4170
:101780004ECDCCCC3D0AD7233C17B7D13877CC2BE4
:10179000329595E6241FB14F0A000020410000C891
:1017A0004200401C4620BCBE4CCA1B0E5AAEC59D12
:1017B0007400F21EA221F57B9D2111241FBECFEFE4
:1017C000D1E2DEBFCDBF00E00CBF15E0A0E0B2E08B
:1017D000E4E7F8E701E00BBF02C007900D92A430E8
:1017E000B107D9F71BBE10E1A4E0B5E001C01D921E
:1017F000AC3EB107E1F717E1C8EBD7E104C022978F
:10180000FE010E94E0BBC23BD107C9F70E9470B63F
:101810000C942EBC0C940000A0E0B0E0E2E1FCE0EF
:101820000C94FDBBEC015B016115710519F0FB0126
:1018300091838083F9908F2D90E00E94E4BB892BE7
:10184000C9F7FDE2FF1621F4F990EE24E39405C0F8
:101850002BE2F21609F4F990EE248E0101501040AB
:10186000C80166E777E143E050E062D2892BF9F4E2
:101870008E010E5F1F4FC80169E777E145E050E038
:1018800057D2892B19F48E01095F1F4FA114B1049F
:1018900019F0F50111830083E0FC04C070E090E0D2
:1018A00080E813C070E090E080E86FEF07C1C801E6
:1018B0006EE777E143E050E03BD2892B69F4A11455
:1018C000B10429F470E090E080EC6FE7F7C0229655
:1018D000F501D183C083F6CF8824992440E050E0FD
:1018E00060E070E0EF2DE053EA30A0F5F2E0EF2A7F
:1018F0008E2D90E09C0128703070E2FE06C0232BF4
:1019000079F50894811C911C2BC0232B19F00894A5
:1019100081089108DB01CA0112E0880F991FAA1FF4
:10192000BB1F1A95D1F7480F591F6A1F7B1F440F21
:10193000551F661F771F4E0F511D611D711D4839C0
:1019400029E9520729E9620729E1720748F084E092
:10195000E82A06C0EE3F31F4E3FC39C098E0E92AFA
:10196000F990C0CFE53311F0E53189F529912D3299
:1019700019F4E0E1EE2A05C02B3219F081E090E085
:1019800003C0299182E090E0E22FE053EA3018F0A2
:10199000C81BD90B1CC020E030E0FCE020383F071A
:1019A0005CF4C901880F991F880F991F280F391FF0
:1019B000220F331F2E0F311DE991E053EA3068F3F7
:1019C000E4FE03C0309521953F4F820E931ECE2C2E
:1019D000DD24E1FE07C0A114B10421F02197F50137
:1019E000D183C083CB01BA010E9449B87B018C012D
:1019F000F3E0CF22DD2423E0C216D10421F417FB4B
:101A0000109517F9109557016801C801B70120E03A
:101A100030E040E050E00E94A9B7882309F44AC0B2
:101A200097FE0DC025E9E22E27E1F22E90948194D5
:101A300091089394C0E2D0E000E010E012C09DEA6B
:101A4000E92E97E1F92EF6CFF701259135914591D1
:101A50005491C601B5010E9489BA5B016C018C1AD0
:101A60009D0A8C169D0684F7D595C7950F5F1F4F6D
:101A70000630110529F08CEF9FEFE80EF91EF1CF2B
:101A8000C501D6017C018D018C2D880F8D2D881FFD
:101A90008F3F51F0C601B50120E030E040E050E05A
:101AA0000E94A9B7882331F482E290E09093EB1072
:101AB0008093EA107E2D9F2D802F612F272F392FA5
:101AC000482F562FB901CA01CDB7DEB7ECE00C9410
:101AD00019BC2F923F925F926F927F928F929F924A
:101AE000AF92BF92CF92DF92EF92FF920F931F932C
:101AF000CF93DF938C011B01EA016115710519F089
:101B0000FB0191838083209749F0CE010297839750
:101B100028F020E030E040E050E0F6C0F801A1906D
:101B20008F018A2D90E00E94E4BB892BB9F7FDE27A
:101B3000AF1631F4F801A1908F015524539407C0DA
:101B4000FBE2AF1619F4F801A1908F0155242097FC
:101B500019F0C031D105C1F4F0E3AF1679F4F80102
:101B60008081883711F0883549F4F801A1800E5F33
:101B70001F4FF2E05F2AC0E1D0E006C0209721F4B9
:101B800080E3A816E9F427C0C830D10531F1C93087
:101B9000D10524F4C230D10531F50CC0CA30D105CD
:101BA00089F0C031D105F9F4C12CD12CE12CB8E079
:101BB000FB2E28C0C12CD12CE12CA0E4FA2E22C08F
:101BC000CAE0D0E0FCECCF2EFCECDF2EFCECEF2EDC
:101BD000FCE0FF2E17C0C8E0D0E0C12CD12CE12CD6
:101BE000E0E1FE2E0FC09E01442737FD4095542FA3
:101BF00060E070E080E090E80E94A1BBC901DA01DA
:101C00006C017D0120E030E040E050E060E03E010A
:101C1000882477FC8094982C70EDB72EBA0CE9E0FC
:101C2000EB1570F48A2D81548A3118F499ECB92E91
:101C300006C08A2D81568A3150F589EAB82EBA0C31
:101C40008B2D90E08C179D0714F56F3FE1F0C216C5
:101C5000D306E406F506B0F0CA01B901A401930168
:101C60000E945BBB9B01AC012B0D311D411D511D21
:101C70002130F0E03F07F0E04F07F0E85F0710F495
:101C800061E001C06FEFF801A1908F01C5CF211471
:101C9000310481F0662331F001501040F1011183CD
:101CA000008308C051FE1AC002501040F101118398
:101CB000008314C067FF12C050FC05C02FEF3FEF38
:101CC0004FEF5FE704C020E030E040E050E882E200
:101CD00090E09093EB108093EA1016C050FE08C07D
:101CE00050954095309521953F4F4F4F5F4F0CC019
:101CF00057FF0AC082E290E09093EB108093EA10C5
:101D00002FEF3FEF4FEF5FE7B901CA01DF91CF91AE
:101D10001F910F91FF90EF90DF90CF90BF90AF9009
:101D20009F908F907F906F905F903F902F9008953D
:101D3000FB01DC014150504088F08D9181341CF052
:101D40008B350CF4805E659161341CF06B350CF4BE
:101D5000605E861B611171F3990B0895881BFCCF9F
:101D6000FB01DC0104C08D910190801921F44150E8
:101D70005040C8F7881B990B0895FB01DC0102C095
:101D800001900D9241505040D8F70895FB01DC01BD
:101D90000D900020E9F7119701900D920020E1F7D6
:101DA0000895FC018191861721F08823D9F799279E
:101DB00008953197CF010895FB01DC0101900D9248
:101DC0000020E1F70895FB01DC014150504030F064
:101DD0008D910190801919F40020B9F7881B990B97
:101DE0000895FB01DC014150504048F001900D92F4
:101DF0000020C9F701C01D9241505040E0F70895FE
:101E0000FB0151915523A9F0BF01DC014D9145170C
:101E10004111E1F759F4CD010190002049F04D91B5
:101E200040154111C9F3FB014111EFCF81E090E072
:101E300001970895AEE0B0E0E0E2FFE00C9405BC4D
:101E40000E891F8986E08C831A8309838FEF9FE7B1
:101E50009E838D839E01265E3F4FCE010196688D45
:101E6000798DA9010AD02F813885020F131FF8013F
:101E700010822E96E4E00C9421BCABE0B0E0E3E4E9
:101E8000FFE00C94F7BB3C012B015A01FC011782C7
:101E90001682838181FD03C06FEF7FEFB9C19AE0A5
:101EA000892E1E010894211C311CF3012381F201AB
:101EB00023FD859123FF81912F01882309F4A5C17A
:101EC000853239F423FD859123FF81912F018532DD
:101ED00021F490E0B301B7D1E8CF982FFF24EE248E
:101EE0009924FFE1FF15D0F09B3269F09C3228F471
:101EF000903259F0933291F40EC09D3249F09033F4
:101F000069F441E024C052E0F52A84E0F82A28C0B0
:101F100098E0F92A25C0E0E1FE2A22C0F7FC29C09A
:101F2000892F80538A3070F4F6FE05C0989C902C5F
:101F30001124980E15C0E89CE02C1124E80EF0E264
:101F4000FF2A0EC09E3229F4F6FC5FC140E4F42A59
:101F500007C09C3619F450E8F52A02C0983649F4B7
:101F6000F20123FD959123FF91912F01992309F00F
:101F7000B8CF892F8554833018F08052833038F4DD
:101F800044E050E0A40EB51E5FE359830FC09336C2
:101F900031F0933779F0933509F052C01FC0F50145
:101FA0008081898342E050E0A40EB51E610101E00A
:101FB00010E011C0F501C080D180F6FC03C06FEFC6
:101FC0007FEF02C0692D70E042E050E0A40EB51E24
:101FD000C6012ED18C015FE7F52213C0F501C08048
:101FE000D180F6FC03C06FEF7FEF02C0692D70E077
:101FF00042E050E0A40EB51EC6010FD18C0150E89E
:10200000F52AF3FE06C018C080E290E0B3011BD1B0
:10201000EA948E2D90E008171907B0F30DC0F60171
:10202000F7FC8591F7FE81916F0190E0B3010BD130
:10203000E110EA94015010400115110581F7E2C04A
:10204000943611F0993661F5F7FE08C0F50120814C
:1020500031814281538184E090E00AC0F5018081A2
:1020600091819C01442737FD4095542F82E090E0F8
:10207000A80EB91E9FE6F92257FF09C0509540955A
:10208000309521953F4F4F4F5F4FE0E8FE2ACA0140
:10209000B901A1012AE030E002D1D82ED2183FC008
:1020A000953729F41F2D1F7E2AE030E01DC01F2D1B
:1020B000197F9F3661F0903720F4983509F0A5C05C
:1020C0000FC0903739F0983709F09FC004C028E05E
:1020D00030E00AC0106114FD146020E130E004C05B
:1020E00014FD166020E132E017FF08C0F5016081A1
:1020F00071818281938144E050E008C0F5018081C4
:102100009181BC0180E090E042E050E0A40EB51E59
:10211000A101C5D0D82ED2188FE7F82EF122F6FEF5
:102120000BC05EEFF522D91438F4F4FE07C0F2FCC0
:1021300005C08FEEF82202C01D2D01C0192DF4FE3E
:102140000DC0FE01ED0DF11D8081803319F499EE73
:10215000F92208C01F5FF2FE05C003C08F2D8678EC
:1021600009F01F5F0F2DF3FC13C0F0FE0EC01E150B
:1021700010F09D2C0AC09D2C9E0C911A1E2D05C09E
:1021800080E290E0B3015FD01F5F1E15C8F304C06A
:102190001E1510F4E11A01C0EE2404FF0EC080E306
:1021A00090E0B30150D002FF1BC001FD03C088E7DF
:1021B00090E00EC088E590E00BC0802F867881F01B
:1021C00001FF02C08BE201C080E2F7FC8DE290E0EB
:1021D000B30139D005C080E390E0B30134D09A94C4
:1021E000D914C8F3DA94F101ED0DF11D808190E06E
:1021F000B30129D0DD20B1F705C080E290E0B30142
:1022000022D0EA94EE20C9F750CEF301668177819F
:10221000CB012B96E2E10C9413BCFC0105906150BC
:1022200070400110D8F7809590958E0F9F1F0895EC
:10223000FC016150704001900110D8F78095909595
:102240008E0F9F1F08950F931F93CF93DF938C01E1
:10225000EB018B8181FF1BC082FF0DC02E813F816E
:102260008C819D812817390764F4E881F9810193F5
:10227000F983E88306C0E885F985802F1995892BB5
:1022800031F48E819F8101969F838E8302C00FEF70
:102290001FEFC801DF91CF911F910F910895FA01AF
:1022A000AA27283051F1203181F1E8946F936E7F95
:1022B0006E5F7F4F8F4F9F4FAF4FB1E03ED0B4E086
:1022C0003CD0670F781F891F9A1FA11D680F791FC7
:1022D0008A1F911DA11D6A0F711D811D911DA11DD8
:1022E00020D009F468943F912AE0269F11243019E8
:1022F000305D3193DEF6CF010895462F4770405D83
:102300004193B3E00FD0C9F7F6CF462F4F70405D31
:102310004A3318F0495D31FD4052419302D0A9F78C
:10232000EACFB4E0A6959795879577956795BA9586
:10233000C9F700976105710508959B01AC010A2E4C
:1023400006945795479537952795BA95C9F7620F23
:10235000731F841F951FA01D0895CF93DF93FC0169
:10236000EC01CD5ADF4FDC01D2968BE10D90099242
:102370008150E1F780A991A9EF5AFF4F91838083A3
:10238000E155F040CF01815B9F4FE35BFF4F9183AD
:102390008083DF91CF910895FC011182128208950C
:1023A000FC018281882311F081E081830895FC0182
:1023B0008181811111820895CF93DF93DC01AA5AA4
:1023C000BF4F8C91A655B0408250823050F1ED0144
:1023D000CD5ADF4FFD01EE58FF4F8BE1019009927E
:1023E0008150E1F7FD01EF5AFF4FA059BF4F8D918A
:1023F0009C911197A057B04091838083ED01CE58F6
:10240000DF4FFD01EF56FF4F8BE1019009928150A4
:10241000E1F7A157BF4F8D919C9111975F978D93D5
:102420009C93DF91CF9108950F931F938C010E948D
:1024300016660E94F365F801118280E092E00E9426
:10244000B23D8091FE088823B1F11092FE086091A0
:10245000B906E62FF0E0EE0FFF1FE05CFF4E808133
:1024600091810E943D6F209112043091130440919C
:102470001404509115040E94B7B91816E4F4609141
:10248000B906062F10E080E090E00E945E70000F19
:10249000111FF801E05CFF4E91838083000F111F34
:1024A000085B1F4E80E090E0A0E0B0E0F801808380
:1024B0009183A283B3831F910F910895FC0184EC53
:1024C00094E0918380838781882321F0CF01049653
:1024D0000C944F580895CF92DF92EF92FF920F9392
:1024E0001F93DF93CF93CDB7DEB76F970FB6F894F6
:1024F000DEBF0FBECDBF8C016B010A5A1F4FD80142
:102500008C9106551040882321F45EE2E52EF12CD3
:1025100003C04FE4E42EF12CE00EF11E84EC94E0B5
:102520009A8389831C821B8218861D82B7016C5F87
:102530007F4FCE010596A60121E00E943B5F8823D4
:1025400091F5EFE2F1E0949108C08091C00085FF21
:10255000FCCF9093C600319694919923B1F7E5E3AF
:10256000F1E0949108C08091C00085FFFCCF90936A
:10257000C600319694919923B1F709C08091C000AB
:1025800085FFFCCF0894C11CD11C9093C600F601B6
:102590009081992399F78091C00085FFFCCF8AE054
:1025A0008093C6003CC0D801AF56BF4FF801EE582B
:1025B000FF4F8BE101900D928150E1F7F801E15757
:1025C000FF4F00591F4FD8018D919C91005710402B
:1025D00091838083D801AE58BF4FF70134968BE1C9
:1025E00001900D928150E1F700591F4FF701828150
:1025F0009381D8018D939C9300571040D801AD5A18
:10260000BF4FFE0135968BE101900D928150E1F7AD
:102610000F5A1F4F8B819C81F80191838083CE01DB
:1026200001964CDF6F960FB6F894DEBF0FBECDBF9C
:10263000CF91DF911F910F91FF90EF90DF90CF909E
:102640000895EF92FF920F931F937C018C010D521E
:102650001F4FC8010E940058C8010E944F58F7013F
:1026600010821F910F91FF90EF9008950F931F9389
:10267000FC0112AA15AA11AA10AA24EC34E037A76B
:1026800026A7ED5AFF4F108233961082359711829C
:10269000108232932293B39610823396108235972C
:1026A0001182108232932293B39610823396108255
:1026B00035971182108232932293B09689E18083FC
:1026C00033961082789610823B9610823396108251
:1026D000359711821082329322937F961082118255
:1026E0001282138238961082118212821382E65F60
:1026F000F0401182128210828F010E501F4FD801BC
:102700001D921D921D921C921397E650FF4F81E07F
:102710008083EA5FF04015A614A60E94CCB36857E8
:102720007C4E8F4F9F4FF801608371838283938328
:102730001F910F910895CF92DF92EF92FF920F9326
:102740001F93CF93DF937C016B01DB010D90002081
:10275000E9F78D0101501040061B170BE3EDF0E087
:10276000EE0EFF1ED7011C92EDE2FFEFEE0EFF1EF4
:10277000CB016EE470E015DBEC01009731F4F80159
:102780003197EC0DFD1D86010CC060E270E009DBA5
:102790008C010F5F1F4FCE016AE270E002DBFC018B
:1027A00031978DE081838AE082831382C701815350
:1027B0009F4FB8010E94346083ED90E0E80EF91E4F
:1027C000D7018C91882319F1EBE4F1E0949108C0D2
:1027D0008091C00085FFFCCF9093C6003196949104
:1027E0009923B1F7E2E5F1E0949108C08091C0002F
:1027F00085FFFCCF9093C600319694919923B1F751
:102800008091C00085FFFCCF8AE08093C600DF91F5
:10281000CF911F910F91FF90EF90DF90CF9008958F
:10282000CF93DF93EC018A81882309F43BC0EAE768
:10283000F1E0949108C08091C00085FFFCCF909397
:10284000C600319694919923B1F7CA50DF4F488161
:1028500059816A817B81C65FD04088E895E02AE093
:1028600030E00E948B1FE8E7F1E0949108C080916E
:10287000C00085FFFCCF9093C600319694919923B8
:10288000B1F7C251DF4F488159816A817B8188E865
:1028900095E02AE030E00E948B1F8091C00085FF08
:1028A000FCCF12C0E8E6F1E0949108C08091C0002E
:1028B00085FFFCCF9093C600319694919923B1F790
:1028C0008091C00085FFFCCF8AE08093C600DF9135
:1028D000CF9108952F923F924F925F926F927F9285
:1028E0008F929F92AF92BF92CF92DF92EF92FF9220
:1028F0000F931F93DF93CF93CDB7DEB7AC970FB68F
:10290000F894DEBF0FBECDBF5C014B01FC0182819C
:10291000882309F434C1C5018D529F4F0E944F583E
:10292000F50111821A8A1D8A198A188A84EC94E0AA
:102930009F878E877DE4C72ED12CCA0CDB1C2EE22C
:1029400030E0A20EB31EF601B182A08222ED3FEF6D
:10295000A20EB31EF40180818F3209F08DC0C40134
:102960006FE270E01EDA7C010894E11CF11C3E016C
:102970000894611C711C260162E1262E312C2C0E5C
:102980003D1E75C0C7016FE270E00BDA6C01009765
:1029900009F480C0E816F90608F07CC08C010E1915
:1029A0001F09C301B701A8011CDA060D171DF801A4
:1029B0001082F30107C08091C00085FFFCCF3196E3
:1029C0009093C60090819923B1F78091C00085FF54
:1029D000FCCFFAE0F093C600F201608171816115CD
:1029E000710519F460E070E002C06C5F7F4FC101B7
:1029F000A30121E00E943B5F882371F5E6EBF1E043
:102A0000949108C08091C00085FFFCCF9093C600D0
:102A1000319694919923B1F7FE01319607C08091C8
:102A2000C00085FFFCCF31969093C600908199231A
:102A3000B1F7E4EBF1E0949108C08091C00085FF0C
:102A4000FCCF9093C600319694919923B1F7809171
:102A5000C00085FFFCCF8DC02EE030E02C0F3D1F65
:102A6000F2013183208376010894E11CF11CE1140A
:102A7000F10409F087CF0BC08FE490E0A80EB91ED7
:102A8000F601B182A08221EB3FEFA20EB31ED82C3B
:102A9000092D02C0DE2C0F2D8DE490E0A80EB91E8A
:102AA000F5018081918123EB3FEFA20EB31E0097C9
:102AB00019F480E090E001C004966D2D702F0E9403
:102AC0000760882339F1E6EAF1E0949108C080912B
:102AD000C00085FFFCCF9093C60031969491992356
:102AE000B1F78D2D902F9C01F90107C08091C00096
:102AF00085FFFCCF31969093C60090819923B1F762
:102B000086EF90E0A80EB91EF501108211821282A4
:102B1000138232C0EEE8F1E0949108C08091C000C9
:102B200085FFFCCF9093C600319694919923B1F71D
:102B30008D2D902F9C01F90107C08091C00085FF69
:102B4000FCCF31969093C60090819923B1F7ECE8C1
:102B5000F1E0949108C08091C00085FFFCCF909374
:102B6000C600319694919923B1F78091C00085FFFA
:102B7000FCCF8AE08093C600CE010E969FDCAC9617
:102B80000FB6F894DEBF0FBECDBFCF91DF911F917E
:102B90000F91FF90EF90DF90CF90BF90AF909F90FC
:102BA0008F907F906F905F904F903F902F900895FF
:102BB0002F923F924F925F926F927F928F929F924D
:102BC000AF92BF92CF92DF92EF92FF920F931F933B
:102BD000DF93CF93CDB7DEB7AD970FB6F894DEBFD6
:102BE0000FBECDBF5C014B014DA7FC018281882344
:102BF00009F4E4C1F3ED4F2E512C4A0C5B1CC201C9
:102C00000E944F58F50111821A8A1D8A198A188A62
:102C100084EC94E09F878E87EDE4CE2ED12CCA0CF5
:102C2000DB1C8EE290E0A80EB91EF601B182A082F4
:102C300082ED9FEFA80EB91EF40180818F3209F05A
:102C400089C0C4016FE270E0ACD87C010894E11C3B
:102C5000F11C3E010894611C711C160176C0C7016D
:102C60006FE270E09ED86C01009709F481C0E8160D
:102C7000F90608F07DC08C010E191F09C301B701C8
:102C8000A801AFD8060D171DF8011082F30107C087
:102C90008091C00085FFFCCF31969093C600908153
:102CA0009923B1F78091C00085FFFCCFFAE0F09343
:102CB000C600F101608171816115710519F460E050
:102CC00070E002C06C5F7F4FCE014296A30121E00D
:102CD0000E943B5F882371F5EEE2F2E0949108C018
:102CE0008091C00085FFFCCF9093C60031969491EF
:102CF0009923B1F7FE01319607C08091C00085FF8E
:102D0000FCCF31969093C60090819923B1F7ECE205
:102D1000F2E0949108C08091C00085FFFCCF9093B1
:102D2000C600319694919923B1F78091C00085FF38
:102D3000FCCF15C18EE090E08C0F9D1FF1019183B7
:102D4000808376010894E11CF11CE114F10409F080
:102D500086CF0BC0EFE4F0E0AE0EBF1EF601B182ED
:102D6000A08281EB9FEFA80EB91E082DF92C01C09F
:102D70000E2DF501E35BFF4F9DA5992309F4ADC02E
:102D8000608171816115710519F460E070E002C025
:102D90006C5F7F4FC201402F5F2D21E00E943B5F9F
:102DA000882309F46AC0E4EEF0E0AE0EBF1EF50120
:102DB00040815181628173818AE090E0A80EB91E42
:102DC000F501408351836283738382E19FEFA80EF4
:102DD000B91EEEE1F2E0949108C08091C00085FF39
:102DE000FCCF9093C600319694919923B1F7802F30
:102DF0009F2D9C01F90107C08091C00085FFFCCF89
:102E000031969093C60090819923B1F7E6E1F2E004
:102E1000949108C08091C00085FFFCCF9093C600BC
:102E2000319694919923B1F788E895E02AE030E053
:102E30000E948B1F8091C00085FFFCCF8AE08093A9
:102E4000C600E6EFF0E0AE0EBF1EF5011082118263
:102E500012821382E8E0F2E0949108C08091C000F1
:102E600085FFFCCF9093C600319694919923B1F7DA
:102E70008091C00085FFFCCF97C0E4EFF1E0949112
:102E800008C08091C00085FFFCCF9093C6003196AA
:102E900094919923B1F7802F9F2D9C01F90107C0D0
:102EA0008091C00085FFFCCF31969093C600908141
:102EB0009923B1F7E2EFF1E0949108C08091C0004E
:102EC00085FFFCCF9093C600319694919923B1F77A
:102ED0008091C00085FFFCCF42C060817181611587
:102EE000710519F460E070E002C06C5F7F4FC201B1
:102EF000402F5F2D26E50E943B5F882309F033C0F9
:102F0000EEEDF1E0949108C08091C00085FFFCCF08
:102F10009093C600319694919923B1F7802F9F2DFD
:102F20009C01F90107C08091C00085FFFCCF31965C
:102F30009093C60090819923B1F7ECEDF1E0949164
:102F400008C08091C00085FFFCCF9093C6003196E9
:102F500094919923B1F78091C00085FFFCCF8AE05E
:102F60008093C60028C081E0F5018083EAECF1E09F
:102F7000949108C08091C00085FFFCCF9093C6005B
:102F8000319694919923B1F7F40107C08091C00064
:102F900085FFFCCF31969093C60090819923B1F7BD
:102FA0008091C00085FFFCCF8AE08093C600802F0F
:102FB0009F2D0E9477ADCE010E9680DAAD960FB6AA
:102FC000F894DEBF0FBECDBFCF91DF911F910F915F
:102FD000FF90EF90DF90CF90BF90AF909F908F9039
:102FE0007F906F905F904F903F902F900895EF9259
:102FF000FF920F931F93CF93DF938C01FC011282FA
:1030000085A9882321F0C801C2960E944F58ACEAD6
:10301000EA2EF12CE00EF11EC70160E045E30E94AC
:10302000FC55882309F5EFE2F1E0949108C0809106
:10303000C00085FFFCCF9093C600319694919923F0
:10304000B1F7E0E7F2E0949108C08091C00085FFFD
:10305000FCCF9093C600319694919923B1F780915B
:10306000C00085FFFCCF7DC0E801CF54DF4FCE010B
:10307000B70141E00E94C560882341F5CE01B70148
:1030800040E00E94C560882309F5EBE4F1E09491EB
:1030900008C08091C00085FFFCCF9093C600319698
:1030A00094919923B1F7EDE5F2E0949108C08091F5
:1030B000C00085FFFCCF9093C60031969491992370
:1030C000B1F78091C00085FFFCCF4BC0C801C2960C
:1030D000BE010E94415B882309F5EBE4F1E0949185
:1030E00008C08091C00085FFFCCF9093C600319648
:1030F00094919923B1F7EDE4F2E0949108C08091A6
:10310000C00085FFFCCF9093C6003196949199231F
:10311000B1F78091C00085FFFCCF23C081E0F801AA
:103120008283EFE2F1E0949108C08091C00085FFB6
:10313000FCCF9093C600319694919923B1F7E2E4C5
:10314000F2E0949108C08091C00085FFFCCF90937D
:10315000C600319694919923B1F78091C00085FF04
:10316000FCCF8AE08093C600D801AD5ABF4FF8016A
:10317000F2968BE101900D928150E1F7F80180A960
:1031800091A90F5A1F4FF801918380830155104078
:10319000C8018E96035B1F4FF80191838083DF91F6
:1031A000CF911F910F91FF90EF9008952F923F9232
:1031B0004F925F926F927F929F92AF92BF92CF9207
:1031C000DF92EF92FF920F931F93DF93CF93CDB7D0
:1031D000DEB7CC55D0400FB6F894DEBF0FBECDBFE2
:1031E0006C01662311F52AEF30E0C20ED31ED60122
:1031F0008C91E6E0FFEFCE0EDF1E882309F4E3C0DA
:1032000022EF30E0C20ED31ED601ED90FD900D915D
:103210001C91EEE0FFEFCE0EDF1E0E94CCB3E6164F
:10322000F7060807190708F4CEC02AEF30E0C20EEF
:10323000D31ED6011C92E6E0FFEFCE0EDF1ED601B4
:1032400012968C91882339F4C601D1DEF601828171
:10325000882309F4B8C000D000D0EDB7FEB731968E
:103260007E010894E11CF11CADB7BEB71296FC922A
:10327000EE9211978CE092E093838283D6019C9624
:103280008D919C919D97958384830E941A0F87014D
:10329000EDB7FEB736960FB6F894FEBF0FBEEDBF82
:1032A00057010AC0D8018C91992787FD90950E94FB
:1032B000ECBBF80181938F01F50101900020E9F743
:1032C0003197EA19FB09802F8E198E175CF382E380
:1032D000A82EB12CAC0CBD1CC50140E050E060E054
:1032E00070E00E94365799240DE3E02EF12CEC0E8D
:1032F000FD1E2E010894411C511C1FE1612E712CF2
:103300006C0E7D1EB5E12B2EB2E03B2E42C0D801E3
:103310008C9190E00E94ECBBF80181938F01D70162
:103320000D900020E9F71197AE19BF09802F8E1973
:103330008A176CF327968FAD27978E3751F1C70107
:10334000B20145E050E00E94E30E009711F500D075
:1033500000D0EDB7FEB73196ADB7BEB712967C92EE
:103360006E92119733822282558244820E941A0FF4
:10337000EDB7FEB736960FB6F894FEBF0FBEEDBFA1
:10338000C3010E94B23D8CE192E00E94B23D9924BB
:103390009394C501B70140E050E00E94605A1816AE
:1033A00014F48701BCCF992041F48FEF9FEFD60131
:1033B0009D969C938E939C9706C0F60184A595A537
:1033C000019695A784A7C45ADF4F0FB6F894DEBFC5
:1033D0000FBECDBFCF91DF911F910F91FF90EF9066
:1033E000DF90CF90BF90AF909F907F906F905F9055
:1033F0004F903F902F9008952F923F924F925F925F
:103400006F927F928F929F92AF92BF92CF92DF92F4
:10341000EF92FF920F931F93DF93CF93CDB7DEB759
:10342000CF58D0400FB6F894DEBF0FBECDBF7C01A1
:103430003B016A0184E090E0C80ED91EF701709646
:10344000C757DF4FF983E883C958D040C7010396B7
:10345000CA57DF4F99838883C658D040C857DF4F7B
:103460001882C858D0408E010A591F4FF8013B9668
:10347000C557DF4FF983E883CB58D0404BEF842EFC
:10348000912C8E0C9F1C3DEFA32EB12CAE0CBF1CBB
:103490002EE0222E312C2C0E3D1E97E4492E512C6D
:1034A0004C0E5D1EC2010496C357DF4F998388837B
:1034B000CD58D040EFE2F1E09491C157DF4F9883AF
:1034C000CF58D04044C1F8018385482F50E0BA015D
:1034D000687170706031710509F047C1F401208195
:1034E00031812130310509F440C12230310509F420
:1034F0003CC1F801DE0111969081903239F08E2F97
:10350000801B883011F48EE28D939D933196C557C0
:10351000DF4F88819981CB58D040E817F90761F7D0
:103520001C921E86F3018081882329F4C10160E288
:1035300072E00E94C60EC101B3010E94C60EC10115
:10354000BE016F5F7F4F0E94C60EC10160E272E054
:103550000E94C60E1CA61FA61BA61AA684EC94E009
:1035600099A788A7CE018C96B601AE014F5F5F4F39
:1035700021E00E943B5F882309F03FC0F401808175
:103580009181892BD1F5C157DF4F9881CF58D04019
:10359000EFE2F1E008C08091C00085FFFCCF90937E
:1035A000C600319694919923B1F7E2E2F2E007C0A8
:1035B0008091C00085FFFCCF31969093C60090812A
:1035C0009923B1F78091C00085FFFCCFFAE0F0931A
:1035D000C600FE01319607C08091C00085FFFCCF78
:1035E00031969093C60090819923B1F78091C000E5
:1035F00085FFFCCF8AE08093C600C357DF4FA881C8
:10360000B981CD58D040FE01BC968BE101900D925E
:103610008150E1F78AA59BA5F2019383828384EC14
:1036200094E091838083C701B101A201E5DEC2016C
:103630000E945E12CE0188960E945E1288C0953E5E
:1036400009F485C09E3209F482C09F3509F47FC019
:1036500043FD7DC080E06031710509F481E0F70130
:1036600083A7882349F4F8018085873409F06FC067
:1036700081858E3709F46BC0CA57DF4FA881B981A5
:10368000C658D040F8018081803241F08E2F801BD7
:10369000883011F48EE28D9380818D933196C557D9
:1036A000DF4F88819981CB58D040E817F90759F747
:1036B0001C92F40180819181009729F5F30107C0E4
:1036C0008091C00085FFFCCF31969093C600908119
:1036D0009923B1F7CA57DF4FE881F981C658D04026
:1036E00007C08091C00085FFFCCF31969093C60043
:1036F00090819923B1F78091C00085FFFCCFFAE05B
:10370000F093C60024C08130910539F4F501808121
:1037100091810196918380831AC00297C1F4C857A2
:10372000DF4FF881C858D0402F2F30E0F50180815D
:10373000918128173907F1F0C857DF4FF881C85831
:10374000D040FF5FC857DF4FF883C858D040C6014C
:10375000B801C757DF4F48815981C958D0400E94EE
:10376000605A18160CF4AFCE05C0F8019081992369
:1037700009F065CFC157DF4F0FB6F894DEBF0FBE1B
:10378000CDBFCF91DF911F910F91FF90EF90DF9010
:10379000CF90BF90AF909F908F907F906F905F90F1
:1037A0004F903F902F900895EF92FF920F931F93A9
:1037B000DF93CF93CDB7DEB76F970FB6F894DEBF28
:1037C0000FBECDBF7C018C01035B1F4F815B9F4F00
:1037D000F801918380832BEF30E0E20EF31E21E0AD
:1037E00030E0F701219331937F011182108223E0B1
:1037F0003FEFE20EF31E049640E050E060E070E020
:103800000E943657F80120813181DE011596F901B9
:1038100034968BE101900D928150E1F7F90182819C
:1038200093819C838B8384EC94E09A838983C70182
:1038300065E372E08E010F5F1F4FA801DDDDC80157
:103840000E945E12F701E350FF4F808191816F96D5
:103850000FB6F894DEBF0FBECDBFCF91DF911F91A1
:103860000F91FF90EF900895EF92FF920F931F93A7
:10387000DF93CF93CDB7DEB76F970FB6F894DEBF67
:103880000FBECDBF7C018C01035B1F4F815B9F4F3F
:10389000F801918380832BEF30E0E20EF31E22E0EB
:1038A00030E0F7013183208325E03FEFE20EF31E85
:1038B000F701E350FF4F60831182049640E050E02F
:1038C00060E070E00E943657F80120813181DE010E
:1038D0001596F90134968BE101900D928150E1F734
:1038E000F901828193819C838B8384EC94E09A8399
:1038F0008983C70165E372E08E010F5F1F4FA80146
:103900007BDDC8010E945E126F960FB6F894DEBF91
:103910000FBECDBFCF91DF911F910F91FF90EF9020
:103920000895EF92FF920F931F93DF93CF93CDB73C
:10393000DEB76F970FB6F894DEBF0FBECDBF7C0128
:103940008BEF90E0E80EF91EF7011182108285E0FE
:103950009FEFE80EF91E87010E5C1F4FC80140E083
:1039600050E060E070E00E943657DE011596F801E5
:103970008BE101900D928150E1F7F70180A991A9A7
:103980009C838B8384EC94E09A838983C70165E3ED
:1039900072E08E010F5F1F4FA8012EDDC8010E944B
:1039A0005E126F960FB6F894DEBF0FBECDBFCF91FB
:1039B000DF911F910F91FF90EF900895DF93CF93C8
:1039C000CDB7DEB7E0970FB6F894DEBF0FBECDBF20
:1039D000DE011196E2E7F4E080E101900D92815062
:1039E000E1F7DE015196E2E6F4E080E101900D920C
:1039F0008150E1F7DE019196E2E5F4E080E101908B
:103A00000D928150E1F789819A81AB81BC818093CD
:103A1000A2089093A308A093A408B093A50889894D
:103A20009A89AB89BC898093920890939308A0935C
:103A30009408B093950889A19AA1ABA1BCA18093E9
:103A4000B2089093B308A093B408B093B5088D81E1
:103A50009E81AF81B8858093A6089093A708A09314
:103A6000A808B093A9088D899E89AF89B88D8093E5
:103A7000960890939708A0939808B09399088DA101
:103A80009EA1AFA1B8A58093B6089093B708A09364
:103A9000B808B093B90889859A85AB85BC858093B1
:103AA000AA089093AB08A093AC08B093AD08898D99
:103AB0009A8DAB8DBC8D80939A0890939B08A093B0
:103AC0009C08B0939D0889A59AA5ABA5BCA5809339
:103AD000BA089093BB08A093BC08B093BD088D852D
:103AE0009E85AF85B8898093AE089093AF08A09368
:103AF000B008B093B1088D8D9E8DAF8DB8A1809325
:103B00009E0890939F08A093A008B093A1088DA54C
:103B10009EA5AFA5B8A98093BE089093BF08A093B7
:103B2000C008B093C10880E090E8ABE3B5E48093AF
:103B3000C6089093C708A093C808B093C90880939B
:103B4000CA089093CB08A093CC08B093CD0820E08E
:103B500030E040E050E02093C2083093C308409327
:103B6000C4085093C50880E29EE4A0E0B0E08093D2
:103B70008E0890938F08A0939008B093910820939B
:103B8000DA083093DB084093DC085093DD0880E0CE
:103B900090E0A0EAB1E48093CE089093CF08A09380
:103BA000D008B093D1088DEC9CECACECBEE38093D4
:103BB000D2089093D308A093D408B093D50880E09E
:103BC00090E0A0EAB0E48093D6089093D708A09341
:103BD000D808B093D9082093A9063093AA06409339
:103BE000AB065093AC062093A5063093A6064093EF
:103BF000A7065093A8062093A1063093A2064093EF
:103C0000A3065093A40684EB90E0909394108093C5
:103C1000931086E490E090939610809395102FEF88
:103C200030E0309398102093971080EF90E09093BD
:103C30009A108093991084E690E090939C10809362
:103C40009B1030939E1020939D108AE999E9A1EB77
:103C5000B1E480931F0490932004A0932104B093B7
:103C6000220485E894EFA0E1BEE3809323049093BF
:103C70002404A0932504B093260480E69FE5A9E2DE
:103C8000B3E48093270490932804A0932904B0936D
:103C90002A0480E090E0A0E8BFE380932B04909397
:103CA0002C04A0932D04B0932E04E0960FB6F89444
:103CB000DEBF0FBECDBFCF91DF9108951F920F924F
:103CC0000FB60F920BB60F9211242F933F934F9381
:103CD0008F939F93EF93FF934091C600E0918405EB
:103CE000F091850531969F012F7730703197809143
:103CF0008605909187052817390739F0EC5FFA4F50
:103D000040833093850520938405FF91EF919F9127
:103D10008F914F913F912F910F900BBE0F900FBE3F
:103D20000F901F9018959A01AB01203081EE380753
:103D300080E0480780E0580749F182E08093C000A6
:103D400060E079E08DE390E00E94C3BB21503040F9
:103D500040405040CA01B90122E030E040E050E06C
:103D60000E94C3BB3093C5002093C4008091C10062
:103D700080618093C1008091C10088608093C10000
:103D80008091C10080688093C10008951092C000A6
:103D900020E130E0E7CF20918605309187058091C2
:103DA0008405909185058217930719F42FEF3FEF53
:103DB0000EC0F901EC5FFA4F80812F5F3F4F2F77E4
:103DC00030703093870520938605282F30E0C90195
:103DD000089580918605909187059093850580933D
:103DE0008405089508952F923F924F925F926F92AB
:103DF0007F928F929F92AF92BF92CF92DF92EF927B
:103E0000FF920F931F93DF93CF93CDB7DEB7A097A9
:103E10000FB6F894DEBF0FBECDBF1C016A017B0157
:103E2000411551056105710541F440E350E060E042
:103E300070E020E030E08BD055C0882499245401F4
:103E4000422E55246624772401E010E00C0F1D1F3C
:103E5000080D191DC701B601A30192010E94A1BB63
:103E6000F80160830894811C911CA11CB11CC7013E
:103E7000B601A30192010E94A1BBC901DA016C0144
:103E80007D01C114D104E104F104F1F681E0E82ED2
:103E9000F12CEC0EFD1EE80CF91C3E010894611C8F
:103EA000711CD501C4010197A109B1096C01C818A1
:103EB000D90815C0F601EE0DFF1D40814A3010F4FF
:103EC000405D01C0495C552747FD5095652F752F12
:103ED000C10120E030E03BD00894E108F1086E1405
:103EE0007F0441F7A0960FB6F894DEBF0FBECDBF9A
:103EF000CF91DF911F910F91FF90EF90DF90CF90C6
:103F0000BF90AF909F908F907F906F905F904F90F9
:103F10003F902F9008952115310539F48091C0000C
:103F200085FFFCCF4093C60008955DCFEF92FF92CE
:103F30000F931F939A01E62EFF2400E010E0B801D2
:103F4000A701E9DF1F910F91FF90EF900895EF9285
:103F5000FF920F931F93CF93DF93EC017A018B01B4
:103F60002115310539F48091C00085FFFCCFE09226
:103F7000C60019C02A303105A9F477FF0FC04DE201
:103F800050E060E070E020E030E0E1DF1095009567
:103F9000F094E094E11CF11C011D111DCE01B8014B
:103FA000A7012AE020DFDF91CF911F910F91FF90B1
:103FB000EF900895EF92FF920F931F937B019A0168
:103FC0000027F7FC0095102FB801A701C0DF1F9153
:103FD0000F91FF90EF9008950F931F938C014DE088
:103FE00050E060E070E020E030E0B1DFC8014AE07E
:103FF00050E060E070E020E030E0A9DF1F910F9119
:104000000895CF92DF92EF92FF920F931F938C014E
:104010009A016B01EE24FF24B701A6017CDFC801E1
:10402000DBDF1F910F91FF90EF90DF90CF9008950D
:104030009F92AF92BF92CF92DF92EF92FF920F9337
:104040001F93CF93DF93EC017A018B01922ECB016A
:10405000BA0120E030E040E050E00E94A9B7882398
:1040600064F4CE014DE250E060E070E020E030E02A
:104070006EDF17FB109517F9109520E030E040E057
:104080005FE3AA240BC0CA01B90120E030E040E29E
:1040900051E40E94B0B79B01AC01A394A91498F31A
:1040A000C801B7010E94D0B67B018C010E941DB8E7
:1040B0005B016C010E9449B89B01AC01C801B701CA
:1040C0000E94CFB67B018C01CE01B601A5012AE08A
:1040D00030E021DF992099F1E6E3F2E007C080911A
:1040E000C00085FFFCCF31969093C6009081992344
:1040F000B1F725C0C801B70120E030E040E251E44B
:104100000E9489BA7B018C010E9418B85B016C0186
:10411000CC24B7FCC094DC2CCE01B601A5012AE06A
:1041200030E015DFC601B5010E944BB89B01AC0120
:10413000C801B7010E94CFB67B018C019A949920E7
:10414000C9F6DF91CF911F910F91FF90EF90DF9013
:10415000CF90BF90AF909F9008956ACF0895EF924F
:10416000FF920F931F93CF93DF93EC01E090AD0686
:10417000F090AE060091AF061091B006688179818B
:104180008A819B81A80197010E94A9B7882324F402
:10419000E882F9820A831B83E090B106F090B206B0
:1041A0000091B3061091B4066C817D818E819F8150
:1041B000A80197010E94A9B7882324F4EC82FD820C
:1041C0000E831F83E090B506F090B6060091B70607
:1041D0001091B806688579858A859B85A801970125
:1041E0000E94A9B7882324F4E886F9860A871B87EA
:1041F000E090F903F090FA030091FB031091FC03A7
:10420000688179818A819B81A80197010E94B7B951
:10421000181624F4E882F9820A831B83E090FD03D8
:10422000F090FE030091FF03109100046C817D81EA
:104230008E819F81A80197010E94B7B9181624F4B6
:10424000EC82FD820E831F83E0900104F090020453
:104250000091030410910404688579858A859B8503
:10426000A80197010E94B7B9181624F4E886F986C8
:104270000A871B87DF91CF911F910F91FF90EF90DD
:1042800008958091C30608958130910541F46F5FD0
:104290007F4F09F051C089E895E00C943613892BC3
:1042A00009F04AC06F5F7F4F09F046C084EC94E08C
:1042B000909359068093580680915F06882321F0D9
:1042C0008CE596E00E944F5884EC94E0909317069A
:1042D0008093160680911D06882321F08AE196E0DE
:1042E0000E944F5884EC94E09093F8058093F70572
:1042F0008091FE05882321F08BEF95E00E944F58B6
:1043000084EC94E09093D9058093D8058091DF05E3
:10431000882321F08CED95E00E944F5884EC94E0C6
:104320009093B8058093B7058091BE05882321F04E
:104330008BEB95E00C944F58089580E090E06FEF80
:104340007FEFA2CF81E090E06FEF7FEF9DCF0E94E3
:1043500026718091C306882309F03AC081E08093DA
:10436000C3068091C5069091C606A091C706B0917C
:10437000C8068093C9069093CA06A093CB06B09353
:10438000CC06E3E8F2E0949108C08091C00085FF7C
:10439000FCCF9093C600319694919923B1F7E4E94C
:1043A000F2E0949108C08091C00085FFFCCF90930B
:1043B000C600319694919923B1F78091C00085FF92
:1043C000FCCF8AE08093C6008AE892E00C94BF7923
:1043D0000895F8940E9426715F9A8A9A8FB7F8948C
:1043E000909108019160909308018FBF129A8CE020
:1043F00060E00E948BB5E3E8F2E0949108C0809100
:10440000C00085FFFCCF9093C6003196949199230C
:10441000B1F7E3E1F3E0949108C08091C00085FF1B
:10442000FCCF9093C600319694919923B1F7809177
:10443000C00085FFFCCF8AE08093C6008AE093E04D
:104440000E94587FFFCF0E94CCB36093CD0670933B
:10445000CE068093CF069093D006E091F606F091B9
:10446000F706E850F94F80818823A9F4E2E3F3E0EE
:10447000949108C08091C00085FFFCCF9093C60046
:10448000319694919923B1F78091C00085FFFCCFBC
:104490008AE08093C6000895EF92FF920F931F93D6
:1044A0000E94CCB3E090D106F090D2060091D306E2
:1044B0001091D4062091CD063091CE064091CF06C2
:1044C0005091D006621B730B840B950BE616F70612
:1044D0000807190730F4E114F1040105110509F08A
:1044E00078DF8091050490910604A0910704B091B3
:1044F00008040097A105B10561F10E94CCB3209199
:10450000CD063091CE064091CF065091D006621B69
:10451000730B840B950B2091050430910604409198
:10452000070450910804261737074807590788F4ED
:104530009091CF0D8091D00D981759F45F9A8A9A77
:104540009FB7F894809108018160809308019FBF14
:10455000129A0E941C451F910F91FF90EF900895B1
:104560006F927F928F929F92AF92BF92CF92DF9283
:10457000EF92FF920F931F93F82E6091D5067091E2
:10458000D6068091D7069091D8062091D906309111
:10459000DA064091DB065091DC060E94C4B93B016B
:1045A0004C016091F5037091F60300D000D00DB777
:1045B0001EB70F5F1F4F882777FD8095982F0E94A9
:1045C0004BB82091090430910A0440910B0450919A
:1045D0000C040E9489BA20E030E040E752E40E94D7
:1045E000B0B720E030E048EC52E40E94B0B75B0185
:1045F0006C01F8016082718282829382F4828091E0
:10460000B906858381E996E061EE76E045ED56E0F6
:1046100020E001E032E0E32E0E942B3E8091E10693
:104620009091E206A091E306B091E4068093910692
:1046300090939206A0939306B09394068091E5061A
:104640009091E606A091E706B091E8068093950662
:1046500090939606A0939706B09398068091E906EA
:104660009091EA06A091EB06B091EC068093990632
:1046700090939A06A0939B06B0939C068091ED06BA
:104680009091EE06A091EF06B091F00680939D0602
:1046900090939E06A0939F06B093A0068DB79EB7F9
:1046A00006960FB6F8949EBF0FBE8DBF0E94CCB386
:1046B0006093CD067093CE068093CF069093D0067C
:1046C0001F910F91FF90EF90DF90CF90BF90AF9030
:1046D0009F908F907F906F900895CF92DF92EF928E
:1046E000FF920F931F9381EE96E039DD0E94CCB3C9
:1046F0006093CD067093CE068093CF069093D0063C
:104700006091910670919206809193069091940623
:104710002091E1063091E2064091E3065091E406D3
:104720000E94A9B7882309F07AC06091950670911C
:10473000960680919706909198062091E506309113
:10474000E6064091E7065091E8060E94A9B7882343
:1047500009F065C06091090470910A0480910B040E
:1047600090910C0420E030E040E752E40E94B0B7A2
:104770007B018C0181EE96E065EE76E049EE56E035
:104780002DEE36E0E9EBCE2EE6E0DE2E0E94394833
:104790008091E1069091E206A091E306B091E406D3
:1047A0008093910690939206A0939306B0939406FB
:1047B0008091E5069091E606A091E706B091E806A3
:1047C0008093950690939606A0939706B0939806CB
:1047D0008091E9069091EA06A091EB06B091EC0673
:1047E0008093990690939A06A0939B06B0939C069B
:1047F0008091ED069091EE06A091EF06B091F00643
:1048000080939D0690939E06A0939F06B093A0066A
:104810001F910F91FF90EF90DF90CF9008956091DE
:10482000F5037091F603882777FD8095982F0E94F5
:104830004BB82091090430910A0440910B04509127
:104840000C040E9489BA20E030E040E752E40E9464
:10485000B0B720E030E048EC52E488CF88E895E03B
:10486000B8DAE5E3F3E0949108C08091C00085FFD9
:10487000FCCF9093C600319694919923B1F7409163
:10488000C5065091C6066091C7067091C8064F5F75
:104890005F4F6F4F7F4F88E895E02AE030E057DBAD
:1048A0008091C00085FFFCCF8AE08093C600CBCD0D
:1048B0002F923F924F925F926F927F928F929F9230
:1048C000AF92BF92CF92DF92EF92FF920F931F931E
:1048D000DF93CF9300D000D0CDB7DEB78C0183300B
:1048E000910508F051C13C01660C771C660C771CE1
:1048F00093012F56394F3A83298380E090E0A0E05E
:10490000B0E0F90180839183A283B38381E996E0CB
:1049100065E976E049E956E02DE936E00E94CF41AD
:10492000F301E151FB4F6591759185919491095F78
:104930001A4FF801E49093012F51394F3E832D8394
:1049400020E030E040EC5FE30E9489BA5B016C013B
:10495000FF24E7FCF0940F2D1F2DC801B7010E9422
:104960004BB81B012C01C601B501A20191010E94A7
:1049700089BAAD81BE816D937D938D939C9313977E
:10498000F301EB51FC4FFC83EB83608171818281E9
:1049900093816093090470930A0480930B049093AD
:1049A0000C0420E030E040E752E40E94B0B77B0105
:1049B0008C0181EE96E065EE76E049EE56E02DEE54
:1049C00036E0A9EBCA2EA6E0DA2E0E9439480E94F2
:1049D000166680E090E0A0E0B0E0E981FA81808393
:1049E0009183A283B38381E996E065E976E049E9A2
:1049F00056E02DE936E00E94CF41F301E550FB4F30
:104A000085909590A590B490C501B4019058A201ED
:104A100091010E9489BAAD81BE816D937D938D9382
:104A20009C9313976091090470910A0480910B0480
:104A300090910C0420E030E040E752E40E94B0B7CF
:104A40007B018C0181EE96E065EE76E049EE56E062
:104A50002DEE36E00E9439480E941666C501B40169
:104A6000A50194010E94D0B6A20191010E9489BAC9
:104A7000ED81FE816083718382839383AB81BC81EE
:104A80006D917D918D919C9120E030E040E05FE35D
:104A90000E9489BA6093090470930A0480930B04FE
:104AA00090930C0420E030E040E752E40E94B0B75D
:104AB0007B018C0181EE96E065EE76E049EE56E0F2
:104AC0002DEE36E00E9439480E941666F301E65F3B
:104AD000FA4F6591759185919491F301EF55F94FD6
:104AE000A080B180C280D380A60195010E94D0B67B
:104AF0007B018C01CB01D801E981FA81808391830C
:104B0000A283B383F301EA5EFA4F659175918591B3
:104B10009491FDEA8F2EF6E09F2E860C971CA6013D
:104B200095010E94D0B6D4016D937D938D939C9393
:104B30001397F301EE5DFA4F65917591859194910C
:104B4000E9EFF3E06E0E7F1EA60195010E94D0B63C
:104B5000D3016D937D938D939C931397C701D801D7
:104B6000ED81FE8180839183A283B38380E090E016
:104B7000A0E0B0E08093090490930A04A0930B0492
:104B8000B0930C040E94F76426960FB6F894DEBF2B
:104B90000FBECDBFCF91DF911F910F91FF90EF908E
:104BA000DF90CF90BF90AF909F908F907F906F904D
:104BB0005F904F903F902F9008954091F60650914E
:104BC000F70620E630E0B901469F9001479F300D7F
:104BD000569F300D1124682F772767FD7095C90106
:104BE0008E5F984F0E94D10E9C0190930107809395
:104BF000000780E0232B09F081E00895FC019491E7
:104C000008C08091C00085FFFCCF9093C60031960C
:104C100094919923B1F788E895E022E030E09DCAAD
:104C20008091000790910107019660E070E04AE0F2
:104C300050E00C94690D8091000790910107019656
:104C400060E070E00C940C0CCF93DF93EC0180914A
:104C5000B9068093C40684E5B0DF882309F459C0FF
:104C6000EADF0E941DB8262F6093C406662309F46C
:104C700050C0EDE7F2E0949108C08091C00085FF3C
:104C8000FCCF9093C600319694919923B1F7C93621
:104C9000D10551F0CD36D10521F0C836D10551F5F9
:104CA00006C0E8E3F2E023C0EFE4F2E015C0E6E678
:104CB000F2E007C08091C00085FFFCCF3196909351
:104CC000C60090819923B1F715C08091C00085FF7F
:104CD000FCCF31969093C60090819923B1F70AC01A
:104CE0008091C00085FFFCCF31969093C6009081E3
:104CF0009923B1F788E895E0622F40E050E016D99B
:104D00008091C00085FFFCCF8AE08093C60081E0DF
:104D100001C080E0DF91CF910895AF92BF92CF9212
:104D2000DF92EF92FF920F931F93CF93DF9311E9DE
:104D3000E12E16E0F12EC1EED6E000E010E0F80121
:104D4000EE57FB4F808139DF882331F174DF5B013F
:104D50006C01F801E657F94F8081882311F061E07A
:104D600002C06091F10670E0882777FD8095982F4A
:104D70000E944BB8F70120813181428153810E940A
:104D800089BA9B01AC01C601B5010E94D0B6688307
:104D900079838A839B8309C0F70180819181A281F5
:104DA000B38188839983AA83BB830F5F1F4F84E0FD
:104DB00090E0E80EF91E24960430110509F0BFCFEB
:104DC00086E4FBDE8823D9F036DF7B018C0160931B
:104DD000F2067093F3068093F4069093F50620E0B4
:104DE00030E040E050E00E94B7B9181644F4E09279
:104DF0000904F0920A0400930B0410930C04DF9151
:104E0000CF911F910F91FF90EF90DF90CF90BF90C7
:104E1000AF90089582DF89E4D0DE882351F00BDF64
:104E20006093D5067093D6068093D7069093D806E4
:104E30000CC080E090E0A0E0B0E08093D5069093B5
:104E4000D606A093D706B093D8068AE4B6DE8823A8
:104E500051F0F1DE6093D9067093DA068093DB0699
:104E60009093DC06089580E090E0A0E0B0E08093AD
:104E7000D9069093DA06A093DB06B093DC0608957A
:104E80002F923F924F925F926F927F928F929F925A
:104E9000AF92BF92CF92DF92EF92FF920F931F9348
:104EA000DF93CF93CDB7DEB7A1970FB6F894DEBFEF
:104EB0000FBECDBF87E481DE882309F408C2BBDEC4
:104EC0000E9418B86430710509F43CC06530710562
:104ED00054F46230710531F16330710554F5772374
:104EE000CCF40C943B376A35710509F49FC16B35DE
:104EF000710534F46C31710511F00C943B3765C0C9
:104F00006B35710509F496C16C35710511F00C947F
:104F10003B3795C18091C306882321F4FEDEDDDB9B
:104F20000C9460378091C306882319F473DF81E005
:104F300006C08091C306882329F46CDF80E010DB73
:104F40000C94603786EE94E00E94BF7980E535DEF0
:104F5000882321F4CC24DD24760105C06CDE0E9478
:104F60001DB86B017C0183E528DE882359F063DEE0
:104F700020E030E04AE754E40E9489BA0E941DB85C
:104F80006B017C010E9416660E94CCB34B015C0150
:104F90008C0C9D1CAE1CBF1C0E94CCB36093CD0634
:104FA0007093CE068093CF069093D00605C00E94E2
:104FB000A67372DA0E943CB10E94CCB368157905E1
:104FC0008A059B05A0F30C943B37809109049091CE
:104FD0000A04A0910B04B0910C048093FC069093FA
:104FE000FD06A093FE06B093FF068091F503909115
:104FF000F60390938F0680938E0684E690E090935C
:10500000F6038093F5030E94CCB36093CD067093B2
:10501000CE068093CF069093D00681E00E94FE6476
:105020008091910690919206A0919306B09194067A
:105030008093E1069093E206A093E306B093E40622
:105040008091950690919606A0919706B09198064A
:105050008093E5069093E606A093E706B093E806F2
:105060008091990690919A06A0919B06B0919C061A
:105070008093E9069093EA06A093EB06B093EC06C2
:1050800080919D0690919E06A0919F06B091A006EA
:105090008093ED069093EE06A093EF06B093F00692
:1050A00080E090E0A0E0B0E08093090490930A04CF
:1050B000A0930B04B0930C0488E57FDD882351F4A2
:1050C00089E57BDD882331F48AE577DD882311F4D7
:1050D00081E001C080E080930D04882321F488E5FD
:1050E0006CDD882319F080E090E0E2DB80910D0414
:1050F000882321F489E561DD882319F081E090E0BF
:10510000D7DB80910D04882321F48AE556DD8823BE
:1051100019F082E090E0CCDB88E54FDD8823C9F010
:105120007FDD611571058105910599F084DD209180
:10513000A1063091A2064091A3065091A4060E94B8
:10514000D0B66093910670939206809393069093E5
:10515000940689E532DD8823C9F062DD61157105A9
:105160008105910599F067DD2091A5063091A6068D
:105170004091A7065091A8060E94D0B6609395066C
:105180007093960680939706909398068AE515DDAE
:105190008823C9F045DD611571058105910599F0F8
:1051A0004ADD2091A9063091AA064091AB065091A4
:1051B000AC060E94D0B66093990670939A068093CD
:1051C0009B0690939C0681E996E065E976E049E9C3
:1051D00056E02DE936E00E94CF4180E00E94FE6457
:1051E0008091FC069091FD06A091FE06B091FF060D
:1051F0008093090490930A04A0930B04B0930C04C9
:1052000080918E0690918F069093F6038093F5031C
:105210000E94CCB36093CD067093CE068093CF06E8
:105220009093D0060E94F7640C943B371092F106DD
:105230000C943B3781E08093F1060C943B3785E476
:10524000BCDC882311F40E94166671E9E72E76E033
:10525000F72E61EAC62E66E0D62E00E010E0F801D7
:10526000EE57FB4F8081A9DC882321F1033059F4EC
:10527000E2DCF70160837183828393838DE996E09A
:105280000E94B24117C0D7DCF601208131814281F2
:1052900053810E94D0B6F701608371838283938328
:1052A00081E996E065E976E049E956E02DE936E0E6
:1052B0000E94CF410F5F1F4F24E030E0E20EF31E4B
:1052C000C20ED31E0430110551F60C943B378DE409
:1052D00074DC882311F40C948536ADDC0E9418B878
:1052E0006A36710509F430C76B3671050CF080C061
:1052F0006C31710509F418C26D317105C4F5653161
:10530000710509F4B4C166317105BCF461317105F0
:1053100009F46FC16231710534F46230710510F027
:105320000C943B370BC16231710509F445C76431F8
:10533000710511F00C943B376DC16831710509F4AA
:10534000BAC16931710554F46631710509F495C12A
:105350006731710511F00C943B3795C16A317105C5
:1053600009F4BFC16B3171050CF0D8C1B4C162350D
:10537000710509F41AC763357105DCF46A327105E9
:1053800009F418C36B32710554F46E31710509F4D8
:1053900008C26F31710511F00C943B3748C260357B
:1053A000710509F4FCC66135710511F00C943B37A9
:1053B000F9C66535710509F452C76635710554F4AF
:1053C0006335710509F4F4C66435710511F00C9468
:1053D0003B37F2C66836710509F42EC3693671058C
:1053E0000CF06AC36C35710511F00C943B374DC756
:1053F0006C3C710511F40C943C346D3C71050CF05F
:1054000045C06737710509F495C068377105DCF44C
:105410006237710509F4E0C76337710554F46B36E0
:10542000710509F4B9C66D36710511F00C943B375E
:105430000EC46337710509F4ADC76537710511F006
:105440000C943B37B6C76C38710509F422C36D382C
:10545000710564F46837710511F40C94DD32693715
:10546000710511F00C943B370C94DF32693C7105E7
:1054700011F40C94E0336B3C710511F40C941A3464
:105480006E3B710511F00C943B37AAC531E06D32CB
:10549000730711F40C94FD3441E06E32740704F587
:1054A0006C3D710511F40C94DC346D3D710564F4B0
:1054B0006D3C710511F40C945C346E3C710511F077
:1054C0000C943B370C94BA346D3D710511F40C9477
:1054D000EE34603F710511F00C943B370C94EA35C3
:1054E00051E06039750711F40C94573681E0613949
:1054F00078076CF491E06E32790711F40C9413364E
:105500006F52714011F00C943B370C941736F1E058
:10551000663F7F0711F40C945A3623E0673E72070A
:1055200011F40C945D36655F714011F00C943B37BB
:105530000C945A36EDE7F2E00C94EA3285ED94E0F3
:105540000E94BF7980E539DB882321F488249924DF
:10555000540105C070DB0E941DB84B015C0183E55E
:105560002CDB882359F067DB20E030E04AE754E485
:105570000E9489BA0E941DB84B015C010E94166608
:105580000E94CCB36093CD067093CE068093CF0675
:105590009093D00681149104A104B10421F10E94DA
:1055A000CCB36B017C01C80CD91CEA1CFB1C0E940B
:1055B000CCB36C157D058E059F0510F00C943B3720
:1055C00080918C1082FF02C00C943B370E94A6731E
:1055D0000E944C220E943CB1EACF0E94A6730E9416
:1055E0004C220E943CB180918C1082FFF6CF0C942B
:1055F0003B378CEC94E00E94BF795F988A989FB704
:10560000F894809108018E7F809308019FBF1298C3
:105610000C943B37ECEBF4E0949108C08091C0000F
:1056200085FFFCCF9093C600319694919923B1F7F2
:105630008091C00085FFFCCF8AE08093C60089E896
:1056400095E00E94911CEEEAF4E0949108C08091EC
:10565000C00085FFFCCF9093C600319694919923AA
:10566000B1F78091C00085FFFCCF0C94383789E8F2
:1056700095E00E94F7170C943B3789E895E00E946B
:10568000CC110C943B378091000790910107049650
:105690006AE270E00E94D10EFC01009711F0319790
:1056A000108260910007709101076C5F7F4F89E85D
:1056B00095E041E072C089E895E00E94D0110E9417
:1056C000CCB36093BB067093BC068093BD069093E9
:1056D000BE060C943B3789E895E00E94D7110C94E4
:1056E0003B3780918B05882311F40C943B3783E57D
:1056F00064DA882311F40C943B3792DAAB01BC01D5
:1057000040937F06509380068093810670938206B3
:105710008CE596E00E9436570C943B3789E895E07B
:105720000E9410140C943B37809100079091010760
:1057300004966AE270E00E94D10E7C01009721F18C
:105740002091F6063091F70680E690E0AC01249FA8
:10575000C001259F900D349F900D11248E5F984FAE
:105760006EE470E00E94D10E60E270E00E94D10E03
:105770009C012F5F3F4F309301072093000708944F
:10578000E108F108F70110826091000770910107AC
:105790006C5F7F4F89E895E040E00E94D8150C943B
:1057A0003B3780918B05882311F40C943B3789E8B3
:1057B00095E00E94211380910007909101070496C3
:1057C0006AE270E00E94D10E7C01009721F12091E5
:1057D000F6063091F70680E690E0AC01249FC00108
:1057E000259F900D349F900D11248E5F984F6EE48D
:1057F00070E00E94D10E60E270E00E94D10E9C0128
:105800002F5F3F4F30930107209300070894E10872
:10581000F108F701108260910007709101076C5F39
:105820007F4F89E895E00E946A140C943B370E94F0
:10583000CCB36093BF067093C0068093C10690936B
:10584000C2062091BB063091BC064091BD06509126
:10585000BE06621B730B840B950B28EE33E040E011
:1058600050E00E94A1BBF22EE32ED42EC52E2DB700
:105870003EB7285030400FB6F8943EBF0FBE2DBF44
:105880000DB71EB70F5F1F4FCE010196EDB7FEB7E4
:105890009283818386E992E0F801938382836F2D5E
:1058A0007E2D842F952F2CE330E040E050E00E94C5
:1058B000A1BBF801358324836F2D7E2D8D2D9C2D6A
:1058C0002CE330E040E050E00E94A1BBF801778378
:1058D00066830E941A0FEDE7F2E094912DB73EB770
:1058E000285F3F4F0FB6F8943EBF0FBE2DBF08C0D4
:1058F0008091C00085FFFCCF9093C60031969491B3
:105900009923B1F7FE01319607C08091C00085FF51
:10591000FCCF31969093C60090819923B1F7809186
:10592000C00085FFFCCF8AE08093C600CE010196BF
:105930000E9477AD8091FE08882311F40C943B37C8
:105940001092FE086091B906E62FF0E0EE0FFF1FFF
:10595000E05CFF4E808191810E943D6F2091120496
:105960003091130440911404509115040E94B7B96A
:10597000181614F00C943B376091B906062F10E00E
:1059800080E090E00E945E70000F111FF801E05C63
:10599000FF4E91838083000F111F085B1F4E80E034
:1059A00090E0A0E0B0E0F80180839183A283B3830C
:1059B0000C943B3783E501D9882311F40C943B37D1
:1059C0003AD96B017C0180E5F8D8882311F40C9456
:1059D0003B37C701B6010E9418B88B0177FF02C0A0
:1059E0000C943B376F3F710519F014F00C943B3762
:1059F00022D90E9418B87B01E6E8F4E08081918109
:105A00008E159F0511F40C943B37329624E0EA3F43
:105A1000F207A1F7F7FE02C00C943B378E2D61E030
:105A20000E948BB58E2D602F0E943EB68E2DB80140
:105A30000E94ADB40C943B3788E690E005D98823EA
:105A400011F00C943B3783E5B8D88823F1F0F3D8F4
:105A50006B017C01B090C4060B2D10E00E9418B8B9
:105A6000DC01CB016B2D0E945E70000F111FF8014D
:105A7000E05CFF4E91838083000F111F085B1F4E77
:105A8000F801C082D182E282F3820E940C6F0C94F2
:105A90003B3783E592D8882311F40C943B37CBD85D
:105AA0000E9418B8DC01CB010E94F86D909343105E
:105AB000809342100C943B3789E690E0C5D8882348
:105AC00011F00C943B37E8EAF4E0949108C080911F
:105AD000C00085FFFCCF9093C60031969491992326
